:1000000009C00EC00DC00CC00BC00AC009C008C09A
:1000100008C006C011241FBECFE9CDBF0CD03BC025
:10002000EFCF1F920F920FB60F9211240F900FBEB9
:100030000F901F9018958FED87BB81E088BB379894
:10004000479A83E085BD8CE384BBA89584B7877FFE
:1000500084BF81B5886181BD86E481BD85B7877E17
:10006000806185BF789480E095B7906295BF889550
:1000700095B79F7D95BF8F5F833048F0C0988BE226
:1000800091E00197F1F700C00000C09A80E091B5BF
:0A009000906491BDE9CFF894FFCF12
:00000001FF
