:1000000009C00EC00DC00CC00BC00AC009C008C09A
:100010001DC006C011241FBECFE9CDBF21D03EC0F8
:10002000EFCF94B7977F94BF91B5986191BD8064ED
:1000300081BD789480B7836080BF8E7F80BF8895B4
:10004000F89481B5886181BD11BC08951F920F920B
:100050000FB60F9211240F900FBE0F901F9018959E
:1000600081E087BB8FE388BB3798479A8CE384BBDA
:1000700083E085BD85B7877E806185BF85B7806257
:1000800085BFC09883E893E00197F1F700C00000B6
:10009000C09A80E2C6DF86E0C4DFF3CFF894FFCFDA
:00000001FF
