:1000000009C00EC00DC00CC00BC00AC009C008C09A
:1000100018C006C011241FBECFE9CDBF1CD038C008
:10002000EFCF94B7977F94BF91B5986191BD8064ED
:1000300081BD78948895F89481B5886181BD11BCA3
:1000400008951F920F920FB60F9211240F900FBEBA
:100050000F901F90189581E087BB88BB3798479A0F
:100060008CE384BB83E085BD85B7877E806185BFD7
:1000700085B7806285BFC09883E893E00197F1F768
:1000800000C00000C09A80E2CCDF86E0CADFF3CF78
:04009000F894FFCF12
:00000001FF
